{"contracts/HashVerifier.sol":{"HashVerifier":{"abi":[{"inputs":[{"internalType":"address","name":"_verifierAddress","type":"address"},{"internalType":"address","name":"_usdcAddress","type":"address"}],"stateMutability":"nonpayable","type":"constructor"},{"anonymous":false,"inputs":[{"indexed":true,"internalType":"uint256","name":"usernameHash","type":"uint256"},{"indexed":false,"internalType":"uint256","name":"amount","type":"uint256"}],"name":"Deposited","type":"event"},{"anonymous":false,"inputs":[{"indexed":true,"internalType":"uint256","name":"fromUsernameHash","type":"uint256"},{"indexed":true,"internalType":"uint256","name":"toUsernameHash","type":"uint256"},{"indexed":false,"internalType":"uint256","name":"amount","type":"uint256"}],"name":"Paid","type":"event"},{"anonymous":false,"inputs":[{"indexed":true,"internalType":"uint256","name":"usernameHash","type":"uint256"},{"indexed":false,"internalType":"uint256","name":"nonce","type":"uint256"}],"name":"ProofVerified","type":"event"},{"anonymous":false,"inputs":[{"indexed":true,"internalType":"uint256","name":"usernameHash","type":"uint256"},{"indexed":false,"internalType":"uint256","name":"resultHash","type":"uint256"}],"name":"UsernameRegistered","type":"event"},{"inputs":[{"internalType":"uint256","name":"","type":"uint256"}],"name":"balances","outputs":[{"internalType":"uint256","name":"","type":"uint256"}],"stateMutability":"view","type":"function"},{"inputs":[{"internalType":"uint256[2]","name":"a","type":"uint256[2]"},{"internalType":"uint256[2][2]","name":"b","type":"uint256[2][2]"},{"internalType":"uint256[2]","name":"c","type":"uint256[2]"},{"internalType":"uint256","name":"usernameHash","type":"uint256"},{"internalType":"uint256","name":"nonce","type":"uint256"},{"internalType":"uint256","name":"amount","type":"uint256"}],"name":"deposit","outputs":[{"internalType":"bool","name":"","type":"bool"}],"stateMutability":"nonpayable","type":"function"},{"inputs":[{"internalType":"uint256[2]","name":"a","type":"uint256[2]"},{"internalType":"uint256[2][2]","name":"b","type":"uint256[2][2]"},{"internalType":"uint256[2]","name":"c","type":"uint256[2]"},{"internalType":"uint256","name":"fromUsernameHash","type":"uint256"},{"internalType":"uint256","name":"toUsernameHash","type":"uint256"},{"internalType":"uint256","name":"nonce","type":"uint256"},{"internalType":"uint256","name":"amount","type":"uint256"}],"name":"pay","outputs":[{"internalType":"bool","name":"","type":"bool"}],"stateMutability":"nonpayable","type":"function"},{"inputs":[{"internalType":"uint256","name":"usernameHash","type":"uint256"},{"internalType":"uint256","name":"resultHash","type":"uint256"}],"name":"register","outputs":[],"stateMutability":"nonpayable","type":"function"},{"inputs":[{"internalType":"uint256","name":"","type":"uint256"}],"name":"resultHashes","outputs":[{"internalType":"uint256","name":"","type":"uint256"}],"stateMutability":"view","type":"function"},{"inputs":[],"name":"usdc","outputs":[{"internalType":"contract IERC20","name":"","type":"address"}],"stateMutability":"view","type":"function"},{"inputs":[{"internalType":"uint256","name":"","type":"uint256"},{"internalType":"uint256","name":"","type":"uint256"}],"name":"usedNonces","outputs":[{"internalType":"bool","name":"","type":"bool"}],"stateMutability":"view","type":"function"},{"inputs":[],"name":"verifier","outputs":[{"internalType":"contract IVerifier","name":"","type":"address"}],"stateMutability":"view","type":"function"},{"inputs":[{"internalType":"uint256[2]","name":"a","type":"uint256[2]"},{"internalType":"uint256[2][2]","name":"b","type":"uint256[2][2]"},{"internalType":"uint256[2]","name":"c","type":"uint256[2]"},{"internalType":"uint256","name":"usernameHash","type":"uint256"},{"internalType":"uint256","name":"nonce","type":"uint256"}],"name":"verify","outputs":[{"internalType":"bool","name":"","type":"bool"}],"stateMutability":"nonpayable","type":"function"}],"evm":{"bytecode":{"linkReferences":{},"object":"60a060405234801561001057600080fd5b506040516117f43803806117f483398181016040528101906100329190610111565b81600360006101000a81548173ffffffffffffffffffffffffffffffffffffffff021916908373ffffffffffffffffffffffffffffffffffffffff1602179055508073ffffffffffffffffffffffffffffffffffffffff1660808173ffffffffffffffffffffffffffffffffffffffff16815250505050610151565b600080fd5b600073ffffffffffffffffffffffffffffffffffffffff82169050919050565b60006100de826100b3565b9050919050565b6100ee816100d3565b81146100f957600080fd5b50565b60008151905061010b816100e5565b92915050565b60008060408385031215610128576101276100ae565b5b6000610136858286016100fc565b9250506020610147858286016100fc565b9150509250929050565b6080516116816101736000396000818161026001526103d501526116816000f3fe608060405234801561001057600080fd5b50600436106100935760003560e01c80634903b0d1116100665780634903b0d1146101345780637b6084de14610164578063b54efb7e14610194578063d66d6c10146101c4578063de3a0633146101e057610093565b80630b928c9d146100985780632b7ac3f3146100c85780633e413bee146100e65780634774be9f14610104575b600080fd5b6100b260048036038101906100ad9190610b96565b610210565b6040516100bf9190610c42565b60405180910390f35b6100d06103ad565b6040516100dd9190610cdc565b60405180910390f35b6100ee6103d3565b6040516100fb9190610d18565b60405180910390f35b61011e60048036038101906101199190610d33565b6103f7565b60405161012b9190610c42565b60405180910390f35b61014e60048036038101906101499190610d73565b610426565b60405161015b9190610daf565b60405180910390f35b61017e60048036038101906101799190610dca565b61043e565b60405161018b9190610c42565b60405180910390f35b6101ae60048036038101906101a99190610e71565b6105d4565b6040516101bb9190610c42565b60405180910390f35b6101de60048036038101906101d99190610d33565b610875565b005b6101fa60048036038101906101f59190610d73565b61091f565b6040516102079190610daf565b60405180910390f35b600061021f87878787876105d4565b61025e576040517f08c379a000000000000000000000000000000000000000000000000000000000815260040161025590610f4c565b60405180910390fd5b7f000000000000000000000000000000000000000000000000000000000000000073ffffffffffffffffffffffffffffffffffffffff166323b872dd3330856040518463ffffffff1660e01b81526004016102bb93929190610f8d565b6020604051808303816000875af11580156102da573d6000803e3d6000fd5b505050506040513d601f19601f820116820180604052508101906102fe9190610ff0565b61033d576040517f08c379a000000000000000000000000000000000000000000000000000000000815260040161033490611069565b60405180910390fd5b8160026000868152602001908152602001600020600082825461036091906110b8565b92505081905550837f06da3309189fa49284f335d2c2bcb4cb0b8ad2a59ad92a9bdebeeb8f1ceba511836040516103979190610daf565b60405180910390a2600190509695505050505050565b600360009054906101000a900473ffffffffffffffffffffffffffffffffffffffff1681565b7f000000000000000000000000000000000000000000000000000000000000000081565b60006020528160005260406000206020528060005260406000206000915091509054906101000a900460ff1681565b60026020528060005260406000206000915090505481565b600061044d88888888876105d4565b61048c576040517f08c379a000000000000000000000000000000000000000000000000000000000815260040161048390610f4c565b60405180910390fd5b60006001600086815260200190815260200160002054036104e2576040517f08c379a00000000000000000000000000000000000000000000000000000000081526004016104d990611138565b60405180910390fd5b8160026000878152602001908152602001600020541015610538576040517f08c379a000000000000000000000000000000000000000000000000000000000815260040161052f906111a4565b60405180910390fd5b8160026000878152602001908152602001600020600082825461055b91906111c4565b925050819055508160026000868152602001908152602001600020600082825461058591906110b8565b9250508190555083857f6015fce7263ca58690e6c17944e54e2fd202d8f1141f0a9f5cdcd6ec8598dd8b846040516105bd9190610daf565b60405180910390a360019050979650505050505050565b6000806000848152602001908152602001600020600083815260200190815260200160002060009054906101000a900460ff1615610647576040517f08c379a000000000000000000000000000000000000000000000000000000000815260040161063e90611244565b60405180910390fd5b600060016000858152602001908152602001600020540361069d576040517f08c379a0000000000000000000000000000000000000000000000000000000008152600401610694906112b0565b60405180910390fd5b6106a5610937565b83816000600381106106ba576106b96112d0565b5b60200201818152505082816001600381106106d8576106d76112d0565b5b602002018181525050600160008581526020019081526020016000205481600260038110610709576107086112d0565b5b602002018181525050600360009054906101000a900473ffffffffffffffffffffffffffffffffffffffff1673ffffffffffffffffffffffffffffffffffffffff166311479fea888888856040518563ffffffff1660e01b8152600401610773949392919061152c565b602060405180830381865afa158015610790573d6000803e3d6000fd5b505050506040513d601f19601f820116820180604052508101906107b49190610ff0565b6107f3576040517f08c379a00000000000000000000000000000000000000000000000000000000081526004016107ea906115bf565b60405180910390fd5b6001600080868152602001908152602001600020600085815260200190815260200160002060006101000a81548160ff021916908315150217905550837fd4f3db4a3b56fedc0b470e2e34b8d98c7baf6e0c2c02edebb326437ba5c4b93f8460405161085f9190610daf565b60405180910390a2600191505095945050505050565b60006001600084815260200190815260200160002054146108cb576040517f08c379a00000000000000000000000000000000000000000000000000000000081526004016108c29061162b565b60405180910390fd5b806001600084815260200190815260200160002081905550817fd200ed943adf73af7ea5a26ded884a431203593fbc0ff8f6a819f5919c9555b1826040516109139190610daf565b60405180910390a25050565b60016020528060005260406000206000915090505481565b6040518060600160405280600390602082028036833780820191505090505090565b6000604051905090565b600080fd5b600080fd5b6000601f19601f8301169050919050565b7f4e487b7100000000000000000000000000000000000000000000000000000000600052604160045260246000fd5b6109b68261096d565b810181811067ffffffffffffffff821117156109d5576109d461097e565b5b80604052505050565b60006109e8610959565b90506109f482826109ad565b919050565b600067ffffffffffffffff821115610a1457610a1361097e565b5b602082029050919050565b600080fd5b6000819050919050565b610a3781610a24565b8114610a4257600080fd5b50565b600081359050610a5481610a2e565b92915050565b6000610a6d610a68846109f9565b6109de565b90508060208402830185811115610a8757610a86610a1f565b5b835b81811015610ab05780610a9c8882610a45565b845260208401935050602081019050610a89565b5050509392505050565b600082601f830112610acf57610ace610968565b5b6002610adc848285610a5a565b91505092915050565b600067ffffffffffffffff821115610b0057610aff61097e565b5b602082029050919050565b6000610b1e610b1984610ae5565b6109de565b90508060408402830185811115610b3857610b37610a1f565b5b835b81811015610b615780610b4d8882610aba565b845260208401935050604081019050610b3a565b5050509392505050565b600082601f830112610b8057610b7f610968565b5b6002610b8d848285610b0b565b91505092915050565b6000806000806000806101608789031215610bb457610bb3610963565b5b6000610bc289828a01610aba565b9650506040610bd389828a01610b6b565b95505060c0610be489828a01610aba565b945050610100610bf689828a01610a45565b935050610120610c0889828a01610a45565b925050610140610c1a89828a01610a45565b9150509295509295509295565b60008115159050919050565b610c3c81610c27565b82525050565b6000602082019050610c576000830184610c33565b92915050565b600073ffffffffffffffffffffffffffffffffffffffff82169050919050565b6000819050919050565b6000610ca2610c9d610c9884610c5d565b610c7d565b610c5d565b9050919050565b6000610cb482610c87565b9050919050565b6000610cc682610ca9565b9050919050565b610cd681610cbb565b82525050565b6000602082019050610cf16000830184610ccd565b92915050565b6000610d0282610ca9565b9050919050565b610d1281610cf7565b82525050565b6000602082019050610d2d6000830184610d09565b92915050565b60008060408385031215610d4a57610d49610963565b5b6000610d5885828601610a45565b9250506020610d6985828601610a45565b9150509250929050565b600060208284031215610d8957610d88610963565b5b6000610d9784828501610a45565b91505092915050565b610da981610a24565b82525050565b6000602082019050610dc46000830184610da0565b92915050565b6000806000806000806000610180888a031215610dea57610de9610963565b5b6000610df88a828b01610aba565b9750506040610e098a828b01610b6b565b96505060c0610e1a8a828b01610aba565b955050610100610e2c8a828b01610a45565b945050610120610e3e8a828b01610a45565b935050610140610e508a828b01610a45565b925050610160610e628a828b01610a45565b91505092959891949750929550565b60008060008060006101408688031215610e8e57610e8d610963565b5b6000610e9c88828901610aba565b9550506040610ead88828901610b6b565b94505060c0610ebe88828901610aba565b935050610100610ed088828901610a45565b925050610120610ee288828901610a45565b9150509295509295909350565b600082825260208201905092915050565b7f566572696669636174696f6e206661696c656400000000000000000000000000600082015250565b6000610f36601383610eef565b9150610f4182610f00565b602082019050919050565b60006020820190508181036000830152610f6581610f29565b9050919050565b6000610f7782610c5d565b9050919050565b610f8781610f6c565b82525050565b6000606082019050610fa26000830186610f7e565b610faf6020830185610f7e565b610fbc6040830184610da0565b949350505050565b610fcd81610c27565b8114610fd857600080fd5b50565b600081519050610fea81610fc4565b92915050565b60006020828403121561100657611005610963565b5b600061101484828501610fdb565b91505092915050565b7f5472616e73666572206661696c65640000000000000000000000000000000000600082015250565b6000611053600f83610eef565b915061105e8261101d565b602082019050919050565b6000602082019050818103600083015261108281611046565b9050919050565b7f4e487b7100000000000000000000000000000000000000000000000000000000600052601160045260246000fd5b60006110c382610a24565b91506110ce83610a24565b92508282019050808211156110e6576110e5611089565b5b92915050565b7f526563697069656e74206e6f7420726567697374657265640000000000000000600082015250565b6000611122601883610eef565b915061112d826110ec565b602082019050919050565b6000602082019050818103600083015261115181611115565b9050919050565b7f496e73756666696369656e742062616c616e6365000000000000000000000000600082015250565b600061118e601483610eef565b915061119982611158565b602082019050919050565b600060208201905081810360008301526111bd81611181565b9050919050565b60006111cf82610a24565b91506111da83610a24565b92508282039050818111156111f2576111f1611089565b5b92915050565b7f4e6f6e636520616c726561647920757365640000000000000000000000000000600082015250565b600061122e601283610eef565b9150611239826111f8565b602082019050919050565b6000602082019050818103600083015261125d81611221565b9050919050565b7f557365726e616d65206e6f742072656769737465726564000000000000000000600082015250565b600061129a601783610eef565b91506112a582611264565b602082019050919050565b600060208201905081810360008301526112c98161128d565b9050919050565b7f4e487b7100000000000000000000000000000000000000000000000000000000600052603260045260246000fd5b600060029050919050565b600081905092915050565b6000819050919050565b61132881610a24565b82525050565b600061133a838361131f565b60208301905092915050565b6000602082019050919050565b61135c816112ff565b611366818461130a565b925061137182611315565b8060005b838110156113a2578151611389878261132e565b965061139483611346565b925050600181019050611375565b505050505050565b600060029050919050565b600081905092915050565b6000819050919050565b600081905092915050565b6113de816112ff565b6113e881846113ca565b92506113f382611315565b8060005b8381101561142457815161140b878261132e565b965061141683611346565b9250506001810190506113f7565b505050505050565b600061143883836113d5565b60408301905092915050565b6000602082019050919050565b61145a816113aa565b61146481846113b5565b925061146f826113c0565b8060005b838110156114a0578151611487878261142c565b965061149283611444565b925050600181019050611473565b505050505050565b600060039050919050565b600081905092915050565b6000819050919050565b6000602082019050919050565b6114de816114a8565b6114e881846114b3565b92506114f3826114be565b8060005b8381101561152457815161150b878261132e565b9650611516836114c8565b9250506001810190506114f7565b505050505050565b6000610160820190506115426000830187611353565b61154f6040830186611451565b61155c60c0830185611353565b61156a6101008301846114d5565b95945050505050565b7f496e76616c69642070726f6f6600000000000000000000000000000000000000600082015250565b60006115a9600d83610eef565b91506115b482611573565b602082019050919050565b600060208201905081810360008301526115d88161159c565b9050919050565b7f557365726e616d6520616c726561647920726567697374657265640000000000600082015250565b6000611615601b83610eef565b9150611620826115df565b602082019050919050565b6000602082019050818103600083015261164481611608565b905091905056fea26469706673582212205690ffcc3c28663a0bf4d5fd0621ff5af1af3ebd2bfeaa3469a330892a9a44d164736f6c634300081c0033","opcodes":"PUSH1 0xA0 PUSH1 0x40 MSTORE CALLVALUE DUP1 ISZERO PUSH2 0x10 JUMPI PUSH1 0x0 DUP1 REVERT JUMPDEST POP PUSH1 0x40 MLOAD PUSH2 0x17F4 CODESIZE SUB DUP1 PUSH2 0x17F4 DUP4 CODECOPY DUP2 DUP2 ADD PUSH1 0x40 MSTORE DUP2 ADD SWAP1 PUSH2 0x32 SWAP2 SWAP1 PUSH2 0x111 JUMP JUMPDEST DUP2 PUSH1 0x3 PUSH1 0x0 PUSH2 0x100 EXP DUP2 SLOAD DUP2 PUSH20 0xFFFFFFFFFFFFFFFFFFFFFFFFFFFFFFFFFFFFFFFF MUL NOT AND SWAP1 DUP4 PUSH20 0xFFFFFFFFFFFFFFFFFFFFFFFFFFFFFFFFFFFFFFFF AND MUL OR SWAP1 SSTORE POP DUP1 PUSH20 0xFFFFFFFFFFFFFFFFFFFFFFFFFFFFFFFFFFFFFFFF AND PUSH1 0x80 DUP2 PUSH20 0xFFFFFFFFFFFFFFFFFFFFFFFFFFFFFFFFFFFFFFFF AND DUP2 MSTORE POP POP POP POP PUSH2 0x151 JUMP JUMPDEST PUSH1 0x0 DUP1 REVERT JUMPDEST PUSH1 0x0 PUSH20 0xFFFFFFFFFFFFFFFFFFFFFFFFFFFFFFFFFFFFFFFF DUP3 AND SWAP1 POP SWAP2 SWAP1 POP JUMP JUMPDEST PUSH1 0x0 PUSH2 0xDE DUP3 PUSH2 0xB3 JUMP JUMPDEST SWAP1 POP SWAP2 SWAP1 POP JUMP JUMPDEST PUSH2 0xEE DUP2 PUSH2 0xD3 JUMP JUMPDEST DUP2 EQ PUSH2 0xF9 JUMPI PUSH1 0x0 DUP1 REVERT JUMPDEST POP JUMP JUMPDEST PUSH1 0x0 DUP2 MLOAD SWAP1 POP PUSH2 0x10B DUP2 PUSH2 0xE5 JUMP JUMPDEST SWAP3 SWAP2 POP POP JUMP JUMPDEST PUSH1 0x0 DUP1 PUSH1 0x40 DUP4 DUP6 SUB SLT ISZERO PUSH2 0x128 JUMPI PUSH2 0x127 PUSH2 0xAE JUMP JUMPDEST JUMPDEST PUSH1 0x0 PUSH2 0x136 DUP6 DUP3 DUP7 ADD PUSH2 0xFC JUMP JUMPDEST SWAP3 POP POP PUSH1 0x20 PUSH2 0x147 DUP6 DUP3 DUP7 ADD PUSH2 0xFC JUMP JUMPDEST SWAP2 POP POP SWAP3 POP SWAP3 SWAP1 POP JUMP JUMPDEST PUSH1 0x80 MLOAD PUSH2 0x1681 PUSH2 0x173 PUSH1 0x0 CODECOPY PUSH1 0x0 DUP2 DUP2 PUSH2 0x260 ADD MSTORE PUSH2 0x3D5 ADD MSTORE PUSH2 0x1681 PUSH1 0x0 RETURN INVALID PUSH1 0x80 PUSH1 0x40 MSTORE CALLVALUE DUP1 ISZERO PUSH2 0x10 JUMPI PUSH1 0x0 DUP1 REVERT JUMPDEST POP PUSH1 0x4 CALLDATASIZE LT PUSH2 0x93 JUMPI PUSH1 0x0 CALLDATALOAD PUSH1 0xE0 SHR DUP1 PUSH4 0x4903B0D1 GT PUSH2 0x66 JUMPI DUP1 PUSH4 0x4903B0D1 EQ PUSH2 0x134 JUMPI DUP1 PUSH4 0x7B6084DE EQ PUSH2 0x164 JUMPI DUP1 PUSH4 0xB54EFB7E EQ PUSH2 0x194 JUMPI DUP1 PUSH4 0xD66D6C10 EQ PUSH2 0x1C4 JUMPI DUP1 PUSH4 0xDE3A0633 EQ PUSH2 0x1E0 JUMPI PUSH2 0x93 JUMP JUMPDEST DUP1 PUSH4 0xB928C9D EQ PUSH2 0x98 JUMPI DUP1 PUSH4 0x2B7AC3F3 EQ PUSH2 0xC8 JUMPI DUP1 PUSH4 0x3E413BEE EQ PUSH2 0xE6 JUMPI DUP1 PUSH4 0x4774BE9F EQ PUSH2 0x104 JUMPI JUMPDEST PUSH1 0x0 DUP1 REVERT JUMPDEST PUSH2 0xB2 PUSH1 0x4 DUP1 CALLDATASIZE SUB DUP2 ADD SWAP1 PUSH2 0xAD SWAP2 SWAP1 PUSH2 0xB96 JUMP JUMPDEST PUSH2 0x210 JUMP JUMPDEST PUSH1 0x40 MLOAD PUSH2 0xBF SWAP2 SWAP1 PUSH2 0xC42 JUMP JUMPDEST PUSH1 0x40 MLOAD DUP1 SWAP2 SUB SWAP1 RETURN JUMPDEST PUSH2 0xD0 PUSH2 0x3AD JUMP JUMPDEST PUSH1 0x40 MLOAD PUSH2 0xDD SWAP2 SWAP1 PUSH2 0xCDC JUMP JUMPDEST PUSH1 0x40 MLOAD DUP1 SWAP2 SUB SWAP1 RETURN JUMPDEST PUSH2 0xEE PUSH2 0x3D3 JUMP JUMPDEST PUSH1 0x40 MLOAD PUSH2 0xFB SWAP2 SWAP1 PUSH2 0xD18 JUMP JUMPDEST PUSH1 0x40 MLOAD DUP1 SWAP2 SUB SWAP1 RETURN JUMPDEST PUSH2 0x11E PUSH1 0x4 DUP1 CALLDATASIZE SUB DUP2 ADD SWAP1 PUSH2 0x119 SWAP2 SWAP1 PUSH2 0xD33 JUMP JUMPDEST PUSH2 0x3F7 JUMP JUMPDEST PUSH1 0x40 MLOAD PUSH2 0x12B SWAP2 SWAP1 PUSH2 0xC42 JUMP JUMPDEST PUSH1 0x40 MLOAD DUP1 SWAP2 SUB SWAP1 RETURN JUMPDEST PUSH2 0x14E PUSH1 0x4 DUP1 CALLDATASIZE SUB DUP2 ADD SWAP1 PUSH2 0x149 SWAP2 SWAP1 PUSH2 0xD73 JUMP JUMPDEST PUSH2 0x426 JUMP JUMPDEST PUSH1 0x40 MLOAD PUSH2 0x15B SWAP2 SWAP1 PUSH2 0xDAF JUMP JUMPDEST PUSH1 0x40 MLOAD DUP1 SWAP2 SUB SWAP1 RETURN JUMPDEST PUSH2 0x17E PUSH1 0x4 DUP1 CALLDATASIZE SUB DUP2 ADD SWAP1 PUSH2 0x179 SWAP2 SWAP1 PUSH2 0xDCA JUMP JUMPDEST PUSH2 0x43E JUMP JUMPDEST PUSH1 0x40 MLOAD PUSH2 0x18B SWAP2 SWAP1 PUSH2 0xC42 JUMP JUMPDEST PUSH1 0x40 MLOAD DUP1 SWAP2 SUB SWAP1 RETURN JUMPDEST PUSH2 0x1AE PUSH1 0x4 DUP1 CALLDATASIZE SUB DUP2 ADD SWAP1 PUSH2 0x1A9 SWAP2 SWAP1 PUSH2 0xE71 JUMP JUMPDEST PUSH2 0x5D4 JUMP JUMPDEST PUSH1 0x40 MLOAD PUSH2 0x1BB SWAP2 SWAP1 PUSH2 0xC42 JUMP JUMPDEST PUSH1 0x40 MLOAD DUP1 SWAP2 SUB SWAP1 RETURN JUMPDEST PUSH2 0x1DE PUSH1 0x4 DUP1 CALLDATASIZE SUB DUP2 ADD SWAP1 PUSH2 0x1D9 SWAP2 SWAP1 PUSH2 0xD33 JUMP JUMPDEST PUSH2 0x875 JUMP JUMPDEST STOP JUMPDEST PUSH2 0x1FA PUSH1 0x4 DUP1 CALLDATASIZE SUB DUP2 ADD SWAP1 PUSH2 0x1F5 SWAP2 SWAP1 PUSH2 0xD73 JUMP JUMPDEST PUSH2 0x91F JUMP JUMPDEST PUSH1 0x40 MLOAD PUSH2 0x207 SWAP2 SWAP1 PUSH2 0xDAF JUMP JUMPDEST PUSH1 0x40 MLOAD DUP1 SWAP2 SUB SWAP1 RETURN JUMPDEST PUSH1 0x0 PUSH2 0x21F DUP8 DUP8 DUP8 DUP8 DUP8 PUSH2 0x5D4 JUMP JUMPDEST PUSH2 0x25E JUMPI PUSH1 0x40 MLOAD PUSH32 0x8C379A000000000000000000000000000000000000000000000000000000000 DUP2 MSTORE PUSH1 0x4 ADD PUSH2 0x255 SWAP1 PUSH2 0xF4C JUMP JUMPDEST PUSH1 0x40 MLOAD DUP1 SWAP2 SUB SWAP1 REVERT JUMPDEST PUSH32 0x0 PUSH20 0xFFFFFFFFFFFFFFFFFFFFFFFFFFFFFFFFFFFFFFFF AND PUSH4 0x23B872DD CALLER ADDRESS DUP6 PUSH1 0x40 MLOAD DUP5 PUSH4 0xFFFFFFFF AND PUSH1 0xE0 SHL DUP2 MSTORE PUSH1 0x4 ADD PUSH2 0x2BB SWAP4 SWAP3 SWAP2 SWAP1 PUSH2 0xF8D JUMP JUMPDEST PUSH1 0x20 PUSH1 0x40 MLOAD DUP1 DUP4 SUB DUP2 PUSH1 0x0 DUP8 GAS CALL ISZERO DUP1 ISZERO PUSH2 0x2DA JUMPI RETURNDATASIZE PUSH1 0x0 DUP1 RETURNDATACOPY RETURNDATASIZE PUSH1 0x0 REVERT JUMPDEST POP POP POP POP PUSH1 0x40 MLOAD RETURNDATASIZE PUSH1 0x1F NOT PUSH1 0x1F DUP3 ADD AND DUP3 ADD DUP1 PUSH1 0x40 MSTORE POP DUP2 ADD SWAP1 PUSH2 0x2FE SWAP2 SWAP1 PUSH2 0xFF0 JUMP JUMPDEST PUSH2 0x33D JUMPI PUSH1 0x40 MLOAD PUSH32 0x8C379A000000000000000000000000000000000000000000000000000000000 DUP2 MSTORE PUSH1 0x4 ADD PUSH2 0x334 SWAP1 PUSH2 0x1069 JUMP JUMPDEST PUSH1 0x40 MLOAD DUP1 SWAP2 SUB SWAP1 REVERT JUMPDEST DUP2 PUSH1 0x2 PUSH1 0x0 DUP7 DUP2 MSTORE PUSH1 0x20 ADD SWAP1 DUP2 MSTORE PUSH1 0x20 ADD PUSH1 0x0 KECCAK256 PUSH1 0x0 DUP3 DUP3 SLOAD PUSH2 0x360 SWAP2 SWAP1 PUSH2 0x10B8 JUMP JUMPDEST SWAP3 POP POP DUP2 SWAP1 SSTORE POP DUP4 PUSH32 0x6DA3309189FA49284F335D2C2BCB4CB0B8AD2A59AD92A9BDEBEEB8F1CEBA511 DUP4 PUSH1 0x40 MLOAD PUSH2 0x397 SWAP2 SWAP1 PUSH2 0xDAF JUMP JUMPDEST PUSH1 0x40 MLOAD DUP1 SWAP2 SUB SWAP1 LOG2 PUSH1 0x1 SWAP1 POP SWAP7 SWAP6 POP POP POP POP POP POP JUMP JUMPDEST PUSH1 0x3 PUSH1 0x0 SWAP1 SLOAD SWAP1 PUSH2 0x100 EXP SWAP1 DIV PUSH20 0xFFFFFFFFFFFFFFFFFFFFFFFFFFFFFFFFFFFFFFFF AND DUP2 JUMP JUMPDEST PUSH32 0x0 DUP2 JUMP JUMPDEST PUSH1 0x0 PUSH1 0x20 MSTORE DUP2 PUSH1 0x0 MSTORE PUSH1 0x40 PUSH1 0x0 KECCAK256 PUSH1 0x20 MSTORE DUP1 PUSH1 0x0 MSTORE PUSH1 0x40 PUSH1 0x0 KECCAK256 PUSH1 0x0 SWAP2 POP SWAP2 POP SWAP1 SLOAD SWAP1 PUSH2 0x100 EXP SWAP1 DIV PUSH1 0xFF AND DUP2 JUMP JUMPDEST PUSH1 0x2 PUSH1 0x20 MSTORE DUP1 PUSH1 0x0 MSTORE PUSH1 0x40 PUSH1 0x0 KECCAK256 PUSH1 0x0 SWAP2 POP SWAP1 POP SLOAD DUP2 JUMP JUMPDEST PUSH1 0x0 PUSH2 0x44D DUP9 DUP9 DUP9 DUP9 DUP8 PUSH2 0x5D4 JUMP JUMPDEST PUSH2 0x48C JUMPI PUSH1 0x40 MLOAD PUSH32 0x8C379A000000000000000000000000000000000000000000000000000000000 DUP2 MSTORE PUSH1 0x4 ADD PUSH2 0x483 SWAP1 PUSH2 0xF4C JUMP JUMPDEST PUSH1 0x40 MLOAD DUP1 SWAP2 SUB SWAP1 REVERT JUMPDEST PUSH1 0x0 PUSH1 0x1 PUSH1 0x0 DUP7 DUP2 MSTORE PUSH1 0x20 ADD SWAP1 DUP2 MSTORE PUSH1 0x20 ADD PUSH1 0x0 KECCAK256 SLOAD SUB PUSH2 0x4E2 JUMPI PUSH1 0x40 MLOAD PUSH32 0x8C379A000000000000000000000000000000000000000000000000000000000 DUP2 MSTORE PUSH1 0x4 ADD PUSH2 0x4D9 SWAP1 PUSH2 0x1138 JUMP JUMPDEST PUSH1 0x40 MLOAD DUP1 SWAP2 SUB SWAP1 REVERT JUMPDEST DUP2 PUSH1 0x2 PUSH1 0x0 DUP8 DUP2 MSTORE PUSH1 0x20 ADD SWAP1 DUP2 MSTORE PUSH1 0x20 ADD PUSH1 0x0 KECCAK256 SLOAD LT ISZERO PUSH2 0x538 JUMPI PUSH1 0x40 MLOAD PUSH32 0x8C379A000000000000000000000000000000000000000000000000000000000 DUP2 MSTORE PUSH1 0x4 ADD PUSH2 0x52F SWAP1 PUSH2 0x11A4 JUMP JUMPDEST PUSH1 0x40 MLOAD DUP1 SWAP2 SUB SWAP1 REVERT JUMPDEST DUP2 PUSH1 0x2 PUSH1 0x0 DUP8 DUP2 MSTORE PUSH1 0x20 ADD SWAP1 DUP2 MSTORE PUSH1 0x20 ADD PUSH1 0x0 KECCAK256 PUSH1 0x0 DUP3 DUP3 SLOAD PUSH2 0x55B SWAP2 SWAP1 PUSH2 0x11C4 JUMP JUMPDEST SWAP3 POP POP DUP2 SWAP1 SSTORE POP DUP2 PUSH1 0x2 PUSH1 0x0 DUP7 DUP2 MSTORE PUSH1 0x20 ADD SWAP1 DUP2 MSTORE PUSH1 0x20 ADD PUSH1 0x0 KECCAK256 PUSH1 0x0 DUP3 DUP3 SLOAD PUSH2 0x585 SWAP2 SWAP1 PUSH2 0x10B8 JUMP JUMPDEST SWAP3 POP POP DUP2 SWAP1 SSTORE POP DUP4 DUP6 PUSH32 0x6015FCE7263CA58690E6C17944E54E2FD202D8F1141F0A9F5CDCD6EC8598DD8B DUP5 PUSH1 0x40 MLOAD PUSH2 0x5BD SWAP2 SWAP1 PUSH2 0xDAF JUMP JUMPDEST PUSH1 0x40 MLOAD DUP1 SWAP2 SUB SWAP1 LOG3 PUSH1 0x1 SWAP1 POP SWAP8 SWAP7 POP POP POP POP POP POP POP JUMP JUMPDEST PUSH1 0x0 DUP1 PUSH1 0x0 DUP5 DUP2 MSTORE PUSH1 0x20 ADD SWAP1 DUP2 MSTORE PUSH1 0x20 ADD PUSH1 0x0 KECCAK256 PUSH1 0x0 DUP4 DUP2 MSTORE PUSH1 0x20 ADD SWAP1 DUP2 MSTORE PUSH1 0x20 ADD PUSH1 0x0 KECCAK256 PUSH1 0x0 SWAP1 SLOAD SWAP1 PUSH2 0x100 EXP SWAP1 DIV PUSH1 0xFF AND ISZERO PUSH2 0x647 JUMPI PUSH1 0x40 MLOAD PUSH32 0x8C379A000000000000000000000000000000000000000000000000000000000 DUP2 MSTORE PUSH1 0x4 ADD PUSH2 0x63E SWAP1 PUSH2 0x1244 JUMP JUMPDEST PUSH1 0x40 MLOAD DUP1 SWAP2 SUB SWAP1 REVERT JUMPDEST PUSH1 0x0 PUSH1 0x1 PUSH1 0x0 DUP6 DUP2 MSTORE PUSH1 0x20 ADD SWAP1 DUP2 MSTORE PUSH1 0x20 ADD PUSH1 0x0 KECCAK256 SLOAD SUB PUSH2 0x69D JUMPI PUSH1 0x40 MLOAD PUSH32 0x8C379A000000000000000000000000000000000000000000000000000000000 DUP2 MSTORE PUSH1 0x4 ADD PUSH2 0x694 SWAP1 PUSH2 0x12B0 JUMP JUMPDEST PUSH1 0x40 MLOAD DUP1 SWAP2 SUB SWAP1 REVERT JUMPDEST PUSH2 0x6A5 PUSH2 0x937 JUMP JUMPDEST DUP4 DUP2 PUSH1 0x0 PUSH1 0x3 DUP2 LT PUSH2 0x6BA JUMPI PUSH2 0x6B9 PUSH2 0x12D0 JUMP JUMPDEST JUMPDEST PUSH1 0x20 MUL ADD DUP2 DUP2 MSTORE POP POP DUP3 DUP2 PUSH1 0x1 PUSH1 0x3 DUP2 LT PUSH2 0x6D8 JUMPI PUSH2 0x6D7 PUSH2 0x12D0 JUMP JUMPDEST JUMPDEST PUSH1 0x20 MUL ADD DUP2 DUP2 MSTORE POP POP PUSH1 0x1 PUSH1 0x0 DUP6 DUP2 MSTORE PUSH1 0x20 ADD SWAP1 DUP2 MSTORE PUSH1 0x20 ADD PUSH1 0x0 KECCAK256 SLOAD DUP2 PUSH1 0x2 PUSH1 0x3 DUP2 LT PUSH2 0x709 JUMPI PUSH2 0x708 PUSH2 0x12D0 JUMP JUMPDEST JUMPDEST PUSH1 0x20 MUL ADD DUP2 DUP2 MSTORE POP POP PUSH1 0x3 PUSH1 0x0 SWAP1 SLOAD SWAP1 PUSH2 0x100 EXP SWAP1 DIV PUSH20 0xFFFFFFFFFFFFFFFFFFFFFFFFFFFFFFFFFFFFFFFF AND PUSH20 0xFFFFFFFFFFFFFFFFFFFFFFFFFFFFFFFFFFFFFFFF AND PUSH4 0x11479FEA DUP9 DUP9 DUP9 DUP6 PUSH1 0x40 MLOAD DUP6 PUSH4 0xFFFFFFFF AND PUSH1 0xE0 SHL DUP2 MSTORE PUSH1 0x4 ADD PUSH2 0x773 SWAP5 SWAP4 SWAP3 SWAP2 SWAP1 PUSH2 0x152C JUMP JUMPDEST PUSH1 0x20 PUSH1 0x40 MLOAD DUP1 DUP4 SUB DUP2 DUP7 GAS STATICCALL ISZERO DUP1 ISZERO PUSH2 0x790 JUMPI RETURNDATASIZE PUSH1 0x0 DUP1 RETURNDATACOPY RETURNDATASIZE PUSH1 0x0 REVERT JUMPDEST POP POP POP POP PUSH1 0x40 MLOAD RETURNDATASIZE PUSH1 0x1F NOT PUSH1 0x1F DUP3 ADD AND DUP3 ADD DUP1 PUSH1 0x40 MSTORE POP DUP2 ADD SWAP1 PUSH2 0x7B4 SWAP2 SWAP1 PUSH2 0xFF0 JUMP JUMPDEST PUSH2 0x7F3 JUMPI PUSH1 0x40 MLOAD PUSH32 0x8C379A000000000000000000000000000000000000000000000000000000000 DUP2 MSTORE PUSH1 0x4 ADD PUSH2 0x7EA SWAP1 PUSH2 0x15BF JUMP JUMPDEST PUSH1 0x40 MLOAD DUP1 SWAP2 SUB SWAP1 REVERT JUMPDEST PUSH1 0x1 PUSH1 0x0 DUP1 DUP7 DUP2 MSTORE PUSH1 0x20 ADD SWAP1 DUP2 MSTORE PUSH1 0x20 ADD PUSH1 0x0 KECCAK256 PUSH1 0x0 DUP6 DUP2 MSTORE PUSH1 0x20 ADD SWAP1 DUP2 MSTORE PUSH1 0x20 ADD PUSH1 0x0 KECCAK256 PUSH1 0x0 PUSH2 0x100 EXP DUP2 SLOAD DUP2 PUSH1 0xFF MUL NOT AND SWAP1 DUP4 ISZERO ISZERO MUL OR SWAP1 SSTORE POP DUP4 PUSH32 0xD4F3DB4A3B56FEDC0B470E2E34B8D98C7BAF6E0C2C02EDEBB326437BA5C4B93F DUP5 PUSH1 0x40 MLOAD PUSH2 0x85F SWAP2 SWAP1 PUSH2 0xDAF JUMP JUMPDEST PUSH1 0x40 MLOAD DUP1 SWAP2 SUB SWAP1 LOG2 PUSH1 0x1 SWAP2 POP POP SWAP6 SWAP5 POP POP POP POP POP JUMP JUMPDEST PUSH1 0x0 PUSH1 0x1 PUSH1 0x0 DUP5 DUP2 MSTORE PUSH1 0x20 ADD SWAP1 DUP2 MSTORE PUSH1 0x20 ADD PUSH1 0x0 KECCAK256 SLOAD EQ PUSH2 0x8CB JUMPI PUSH1 0x40 MLOAD PUSH32 0x8C379A000000000000000000000000000000000000000000000000000000000 DUP2 MSTORE PUSH1 0x4 ADD PUSH2 0x8C2 SWAP1 PUSH2 0x162B JUMP JUMPDEST PUSH1 0x40 MLOAD DUP1 SWAP2 SUB SWAP1 REVERT JUMPDEST DUP1 PUSH1 0x1 PUSH1 0x0 DUP5 DUP2 MSTORE PUSH1 0x20 ADD SWAP1 DUP2 MSTORE PUSH1 0x20 ADD PUSH1 0x0 KECCAK256 DUP2 SWAP1 SSTORE POP DUP2 PUSH32 0xD200ED943ADF73AF7EA5A26DED884A431203593FBC0FF8F6A819F5919C9555B1 DUP3 PUSH1 0x40 MLOAD PUSH2 0x913 SWAP2 SWAP1 PUSH2 0xDAF JUMP JUMPDEST PUSH1 0x40 MLOAD DUP1 SWAP2 SUB SWAP1 LOG2 POP POP JUMP JUMPDEST PUSH1 0x1 PUSH1 0x20 MSTORE DUP1 PUSH1 0x0 MSTORE PUSH1 0x40 PUSH1 0x0 KECCAK256 PUSH1 0x0 SWAP2 POP SWAP1 POP SLOAD DUP2 JUMP JUMPDEST PUSH1 0x40 MLOAD DUP1 PUSH1 0x60 ADD PUSH1 0x40 MSTORE DUP1 PUSH1 0x3 SWAP1 PUSH1 0x20 DUP3 MUL DUP1 CALLDATASIZE DUP4 CALLDATACOPY DUP1 DUP3 ADD SWAP2 POP POP SWAP1 POP POP SWAP1 JUMP JUMPDEST PUSH1 0x0 PUSH1 0x40 MLOAD SWAP1 POP SWAP1 JUMP JUMPDEST PUSH1 0x0 DUP1 REVERT JUMPDEST PUSH1 0x0 DUP1 REVERT JUMPDEST PUSH1 0x0 PUSH1 0x1F NOT PUSH1 0x1F DUP4 ADD AND SWAP1 POP SWAP2 SWAP1 POP JUMP JUMPDEST PUSH32 0x4E487B7100000000000000000000000000000000000000000000000000000000 PUSH1 0x0 MSTORE PUSH1 0x41 PUSH1 0x4 MSTORE PUSH1 0x24 PUSH1 0x0 REVERT JUMPDEST PUSH2 0x9B6 DUP3 PUSH2 0x96D JUMP JUMPDEST DUP2 ADD DUP2 DUP2 LT PUSH8 0xFFFFFFFFFFFFFFFF DUP3 GT OR ISZERO PUSH2 0x9D5 JUMPI PUSH2 0x9D4 PUSH2 0x97E JUMP JUMPDEST JUMPDEST DUP1 PUSH1 0x40 MSTORE POP POP POP JUMP JUMPDEST PUSH1 0x0 PUSH2 0x9E8 PUSH2 0x959 JUMP JUMPDEST SWAP1 POP PUSH2 0x9F4 DUP3 DUP3 PUSH2 0x9AD JUMP JUMPDEST SWAP2 SWAP1 POP JUMP JUMPDEST PUSH1 0x0 PUSH8 0xFFFFFFFFFFFFFFFF DUP3 GT ISZERO PUSH2 0xA14 JUMPI PUSH2 0xA13 PUSH2 0x97E JUMP JUMPDEST JUMPDEST PUSH1 0x20 DUP3 MUL SWAP1 POP SWAP2 SWAP1 POP JUMP JUMPDEST PUSH1 0x0 DUP1 REVERT JUMPDEST PUSH1 0x0 DUP2 SWAP1 POP SWAP2 SWAP1 POP JUMP JUMPDEST PUSH2 0xA37 DUP2 PUSH2 0xA24 JUMP JUMPDEST DUP2 EQ PUSH2 0xA42 JUMPI PUSH1 0x0 DUP1 REVERT JUMPDEST POP JUMP JUMPDEST PUSH1 0x0 DUP2 CALLDATALOAD SWAP1 POP PUSH2 0xA54 DUP2 PUSH2 0xA2E JUMP JUMPDEST SWAP3 SWAP2 POP POP JUMP JUMPDEST PUSH1 0x0 PUSH2 0xA6D PUSH2 0xA68 DUP5 PUSH2 0x9F9 JUMP JUMPDEST PUSH2 0x9DE JUMP JUMPDEST SWAP1 POP DUP1 PUSH1 0x20 DUP5 MUL DUP4 ADD DUP6 DUP2 GT ISZERO PUSH2 0xA87 JUMPI PUSH2 0xA86 PUSH2 0xA1F JUMP JUMPDEST JUMPDEST DUP4 JUMPDEST DUP2 DUP2 LT ISZERO PUSH2 0xAB0 JUMPI DUP1 PUSH2 0xA9C DUP9 DUP3 PUSH2 0xA45 JUMP JUMPDEST DUP5 MSTORE PUSH1 0x20 DUP5 ADD SWAP4 POP POP PUSH1 0x20 DUP2 ADD SWAP1 POP PUSH2 0xA89 JUMP JUMPDEST POP POP POP SWAP4 SWAP3 POP POP POP JUMP JUMPDEST PUSH1 0x0 DUP3 PUSH1 0x1F DUP4 ADD SLT PUSH2 0xACF JUMPI PUSH2 0xACE PUSH2 0x968 JUMP JUMPDEST JUMPDEST PUSH1 0x2 PUSH2 0xADC DUP5 DUP3 DUP6 PUSH2 0xA5A JUMP JUMPDEST SWAP2 POP POP SWAP3 SWAP2 POP POP JUMP JUMPDEST PUSH1 0x0 PUSH8 0xFFFFFFFFFFFFFFFF DUP3 GT ISZERO PUSH2 0xB00 JUMPI PUSH2 0xAFF PUSH2 0x97E JUMP JUMPDEST JUMPDEST PUSH1 0x20 DUP3 MUL SWAP1 POP SWAP2 SWAP1 POP JUMP JUMPDEST PUSH1 0x0 PUSH2 0xB1E PUSH2 0xB19 DUP5 PUSH2 0xAE5 JUMP JUMPDEST PUSH2 0x9DE JUMP JUMPDEST SWAP1 POP DUP1 PUSH1 0x40 DUP5 MUL DUP4 ADD DUP6 DUP2 GT ISZERO PUSH2 0xB38 JUMPI PUSH2 0xB37 PUSH2 0xA1F JUMP JUMPDEST JUMPDEST DUP4 JUMPDEST DUP2 DUP2 LT ISZERO PUSH2 0xB61 JUMPI DUP1 PUSH2 0xB4D DUP9 DUP3 PUSH2 0xABA JUMP JUMPDEST DUP5 MSTORE PUSH1 0x20 DUP5 ADD SWAP4 POP POP PUSH1 0x40 DUP2 ADD SWAP1 POP PUSH2 0xB3A JUMP JUMPDEST POP POP POP SWAP4 SWAP3 POP POP POP JUMP JUMPDEST PUSH1 0x0 DUP3 PUSH1 0x1F DUP4 ADD SLT PUSH2 0xB80 JUMPI PUSH2 0xB7F PUSH2 0x968 JUMP JUMPDEST JUMPDEST PUSH1 0x2 PUSH2 0xB8D DUP5 DUP3 DUP6 PUSH2 0xB0B JUMP JUMPDEST SWAP2 POP POP SWAP3 SWAP2 POP POP JUMP JUMPDEST PUSH1 0x0 DUP1 PUSH1 0x0 DUP1 PUSH1 0x0 DUP1 PUSH2 0x160 DUP8 DUP10 SUB SLT ISZERO PUSH2 0xBB4 JUMPI PUSH2 0xBB3 PUSH2 0x963 JUMP JUMPDEST JUMPDEST PUSH1 0x0 PUSH2 0xBC2 DUP10 DUP3 DUP11 ADD PUSH2 0xABA JUMP JUMPDEST SWAP7 POP POP PUSH1 0x40 PUSH2 0xBD3 DUP10 DUP3 DUP11 ADD PUSH2 0xB6B JUMP JUMPDEST SWAP6 POP POP PUSH1 0xC0 PUSH2 0xBE4 DUP10 DUP3 DUP11 ADD PUSH2 0xABA JUMP JUMPDEST SWAP5 POP POP PUSH2 0x100 PUSH2 0xBF6 DUP10 DUP3 DUP11 ADD PUSH2 0xA45 JUMP JUMPDEST SWAP4 POP POP PUSH2 0x120 PUSH2 0xC08 DUP10 DUP3 DUP11 ADD PUSH2 0xA45 JUMP JUMPDEST SWAP3 POP POP PUSH2 0x140 PUSH2 0xC1A DUP10 DUP3 DUP11 ADD PUSH2 0xA45 JUMP JUMPDEST SWAP2 POP POP SWAP3 SWAP6 POP SWAP3 SWAP6 POP SWAP3 SWAP6 JUMP JUMPDEST PUSH1 0x0 DUP2 ISZERO ISZERO SWAP1 POP SWAP2 SWAP1 POP JUMP JUMPDEST PUSH2 0xC3C DUP2 PUSH2 0xC27 JUMP JUMPDEST DUP3 MSTORE POP POP JUMP JUMPDEST PUSH1 0x0 PUSH1 0x20 DUP3 ADD SWAP1 POP PUSH2 0xC57 PUSH1 0x0 DUP4 ADD DUP5 PUSH2 0xC33 JUMP JUMPDEST SWAP3 SWAP2 POP POP JUMP JUMPDEST PUSH1 0x0 PUSH20 0xFFFFFFFFFFFFFFFFFFFFFFFFFFFFFFFFFFFFFFFF DUP3 AND SWAP1 POP SWAP2 SWAP1 POP JUMP JUMPDEST PUSH1 0x0 DUP2 SWAP1 POP SWAP2 SWAP1 POP JUMP JUMPDEST PUSH1 0x0 PUSH2 0xCA2 PUSH2 0xC9D PUSH2 0xC98 DUP5 PUSH2 0xC5D JUMP JUMPDEST PUSH2 0xC7D JUMP JUMPDEST PUSH2 0xC5D JUMP JUMPDEST SWAP1 POP SWAP2 SWAP1 POP JUMP JUMPDEST PUSH1 0x0 PUSH2 0xCB4 DUP3 PUSH2 0xC87 JUMP JUMPDEST SWAP1 POP SWAP2 SWAP1 POP JUMP JUMPDEST PUSH1 0x0 PUSH2 0xCC6 DUP3 PUSH2 0xCA9 JUMP JUMPDEST SWAP1 POP SWAP2 SWAP1 POP JUMP JUMPDEST PUSH2 0xCD6 DUP2 PUSH2 0xCBB JUMP JUMPDEST DUP3 MSTORE POP POP JUMP JUMPDEST PUSH1 0x0 PUSH1 0x20 DUP3 ADD SWAP1 POP PUSH2 0xCF1 PUSH1 0x0 DUP4 ADD DUP5 PUSH2 0xCCD JUMP JUMPDEST SWAP3 SWAP2 POP POP JUMP JUMPDEST PUSH1 0x0 PUSH2 0xD02 DUP3 PUSH2 0xCA9 JUMP JUMPDEST SWAP1 POP SWAP2 SWAP1 POP JUMP JUMPDEST PUSH2 0xD12 DUP2 PUSH2 0xCF7 JUMP JUMPDEST DUP3 MSTORE POP POP JUMP JUMPDEST PUSH1 0x0 PUSH1 0x20 DUP3 ADD SWAP1 POP PUSH2 0xD2D PUSH1 0x0 DUP4 ADD DUP5 PUSH2 0xD09 JUMP JUMPDEST SWAP3 SWAP2 POP POP JUMP JUMPDEST PUSH1 0x0 DUP1 PUSH1 0x40 DUP4 DUP6 SUB SLT ISZERO PUSH2 0xD4A JUMPI PUSH2 0xD49 PUSH2 0x963 JUMP JUMPDEST JUMPDEST PUSH1 0x0 PUSH2 0xD58 DUP6 DUP3 DUP7 ADD PUSH2 0xA45 JUMP JUMPDEST SWAP3 POP POP PUSH1 0x20 PUSH2 0xD69 DUP6 DUP3 DUP7 ADD PUSH2 0xA45 JUMP JUMPDEST SWAP2 POP POP SWAP3 POP SWAP3 SWAP1 POP JUMP JUMPDEST PUSH1 0x0 PUSH1 0x20 DUP3 DUP5 SUB SLT ISZERO PUSH2 0xD89 JUMPI PUSH2 0xD88 PUSH2 0x963 JUMP JUMPDEST JUMPDEST PUSH1 0x0 PUSH2 0xD97 DUP5 DUP3 DUP6 ADD PUSH2 0xA45 JUMP JUMPDEST SWAP2 POP POP SWAP3 SWAP2 POP POP JUMP JUMPDEST PUSH2 0xDA9 DUP2 PUSH2 0xA24 JUMP JUMPDEST DUP3 MSTORE POP POP JUMP JUMPDEST PUSH1 0x0 PUSH1 0x20 DUP3 ADD SWAP1 POP PUSH2 0xDC4 PUSH1 0x0 DUP4 ADD DUP5 PUSH2 0xDA0 JUMP JUMPDEST SWAP3 SWAP2 POP POP JUMP JUMPDEST PUSH1 0x0 DUP1 PUSH1 0x0 DUP1 PUSH1 0x0 DUP1 PUSH1 0x0 PUSH2 0x180 DUP9 DUP11 SUB SLT ISZERO PUSH2 0xDEA JUMPI PUSH2 0xDE9 PUSH2 0x963 JUMP JUMPDEST JUMPDEST PUSH1 0x0 PUSH2 0xDF8 DUP11 DUP3 DUP12 ADD PUSH2 0xABA JUMP JUMPDEST SWAP8 POP POP PUSH1 0x40 PUSH2 0xE09 DUP11 DUP3 DUP12 ADD PUSH2 0xB6B JUMP JUMPDEST SWAP7 POP POP PUSH1 0xC0 PUSH2 0xE1A DUP11 DUP3 DUP12 ADD PUSH2 0xABA JUMP JUMPDEST SWAP6 POP POP PUSH2 0x100 PUSH2 0xE2C DUP11 DUP3 DUP12 ADD PUSH2 0xA45 JUMP JUMPDEST SWAP5 POP POP PUSH2 0x120 PUSH2 0xE3E DUP11 DUP3 DUP12 ADD PUSH2 0xA45 JUMP JUMPDEST SWAP4 POP POP PUSH2 0x140 PUSH2 0xE50 DUP11 DUP3 DUP12 ADD PUSH2 0xA45 JUMP JUMPDEST SWAP3 POP POP PUSH2 0x160 PUSH2 0xE62 DUP11 DUP3 DUP12 ADD PUSH2 0xA45 JUMP JUMPDEST SWAP2 POP POP SWAP3 SWAP6 SWAP9 SWAP2 SWAP5 SWAP8 POP SWAP3 SWAP6 POP JUMP JUMPDEST PUSH1 0x0 DUP1 PUSH1 0x0 DUP1 PUSH1 0x0 PUSH2 0x140 DUP7 DUP9 SUB SLT ISZERO PUSH2 0xE8E JUMPI PUSH2 0xE8D PUSH2 0x963 JUMP JUMPDEST JUMPDEST PUSH1 0x0 PUSH2 0xE9C DUP9 DUP3 DUP10 ADD PUSH2 0xABA JUMP JUMPDEST SWAP6 POP POP PUSH1 0x40 PUSH2 0xEAD DUP9 DUP3 DUP10 ADD PUSH2 0xB6B JUMP JUMPDEST SWAP5 POP POP PUSH1 0xC0 PUSH2 0xEBE DUP9 DUP3 DUP10 ADD PUSH2 0xABA JUMP JUMPDEST SWAP4 POP POP PUSH2 0x100 PUSH2 0xED0 DUP9 DUP3 DUP10 ADD PUSH2 0xA45 JUMP JUMPDEST SWAP3 POP POP PUSH2 0x120 PUSH2 0xEE2 DUP9 DUP3 DUP10 ADD PUSH2 0xA45 JUMP JUMPDEST SWAP2 POP POP SWAP3 SWAP6 POP SWAP3 SWAP6 SWAP1 SWAP4 POP JUMP JUMPDEST PUSH1 0x0 DUP3 DUP3 MSTORE PUSH1 0x20 DUP3 ADD SWAP1 POP SWAP3 SWAP2 POP POP JUMP JUMPDEST PUSH32 0x566572696669636174696F6E206661696C656400000000000000000000000000 PUSH1 0x0 DUP3 ADD MSTORE POP JUMP JUMPDEST PUSH1 0x0 PUSH2 0xF36 PUSH1 0x13 DUP4 PUSH2 0xEEF JUMP JUMPDEST SWAP2 POP PUSH2 0xF41 DUP3 PUSH2 0xF00 JUMP JUMPDEST PUSH1 0x20 DUP3 ADD SWAP1 POP SWAP2 SWAP1 POP JUMP JUMPDEST PUSH1 0x0 PUSH1 0x20 DUP3 ADD SWAP1 POP DUP2 DUP2 SUB PUSH1 0x0 DUP4 ADD MSTORE PUSH2 0xF65 DUP2 PUSH2 0xF29 JUMP JUMPDEST SWAP1 POP SWAP2 SWAP1 POP JUMP JUMPDEST PUSH1 0x0 PUSH2 0xF77 DUP3 PUSH2 0xC5D JUMP JUMPDEST SWAP1 POP SWAP2 SWAP1 POP JUMP JUMPDEST PUSH2 0xF87 DUP2 PUSH2 0xF6C JUMP JUMPDEST DUP3 MSTORE POP POP JUMP JUMPDEST PUSH1 0x0 PUSH1 0x60 DUP3 ADD SWAP1 POP PUSH2 0xFA2 PUSH1 0x0 DUP4 ADD DUP7 PUSH2 0xF7E JUMP JUMPDEST PUSH2 0xFAF PUSH1 0x20 DUP4 ADD DUP6 PUSH2 0xF7E JUMP JUMPDEST PUSH2 0xFBC PUSH1 0x40 DUP4 ADD DUP5 PUSH2 0xDA0 JUMP JUMPDEST SWAP5 SWAP4 POP POP POP POP JUMP JUMPDEST PUSH2 0xFCD DUP2 PUSH2 0xC27 JUMP JUMPDEST DUP2 EQ PUSH2 0xFD8 JUMPI PUSH1 0x0 DUP1 REVERT JUMPDEST POP JUMP JUMPDEST PUSH1 0x0 DUP2 MLOAD SWAP1 POP PUSH2 0xFEA DUP2 PUSH2 0xFC4 JUMP JUMPDEST SWAP3 SWAP2 POP POP JUMP JUMPDEST PUSH1 0x0 PUSH1 0x20 DUP3 DUP5 SUB SLT ISZERO PUSH2 0x1006 JUMPI PUSH2 0x1005 PUSH2 0x963 JUMP JUMPDEST JUMPDEST PUSH1 0x0 PUSH2 0x1014 DUP5 DUP3 DUP6 ADD PUSH2 0xFDB JUMP JUMPDEST SWAP2 POP POP SWAP3 SWAP2 POP POP JUMP JUMPDEST PUSH32 0x5472616E73666572206661696C65640000000000000000000000000000000000 PUSH1 0x0 DUP3 ADD MSTORE POP JUMP JUMPDEST PUSH1 0x0 PUSH2 0x1053 PUSH1 0xF DUP4 PUSH2 0xEEF JUMP JUMPDEST SWAP2 POP PUSH2 0x105E DUP3 PUSH2 0x101D JUMP JUMPDEST PUSH1 0x20 DUP3 ADD SWAP1 POP SWAP2 SWAP1 POP JUMP JUMPDEST PUSH1 0x0 PUSH1 0x20 DUP3 ADD SWAP1 POP DUP2 DUP2 SUB PUSH1 0x0 DUP4 ADD MSTORE PUSH2 0x1082 DUP2 PUSH2 0x1046 JUMP JUMPDEST SWAP1 POP SWAP2 SWAP1 POP JUMP JUMPDEST PUSH32 0x4E487B7100000000000000000000000000000000000000000000000000000000 PUSH1 0x0 MSTORE PUSH1 0x11 PUSH1 0x4 MSTORE PUSH1 0x24 PUSH1 0x0 REVERT JUMPDEST PUSH1 0x0 PUSH2 0x10C3 DUP3 PUSH2 0xA24 JUMP JUMPDEST SWAP2 POP PUSH2 0x10CE DUP4 PUSH2 0xA24 JUMP JUMPDEST SWAP3 POP DUP3 DUP3 ADD SWAP1 POP DUP1 DUP3 GT ISZERO PUSH2 0x10E6 JUMPI PUSH2 0x10E5 PUSH2 0x1089 JUMP JUMPDEST JUMPDEST SWAP3 SWAP2 POP POP JUMP JUMPDEST PUSH32 0x526563697069656E74206E6F7420726567697374657265640000000000000000 PUSH1 0x0 DUP3 ADD MSTORE POP JUMP JUMPDEST PUSH1 0x0 PUSH2 0x1122 PUSH1 0x18 DUP4 PUSH2 0xEEF JUMP JUMPDEST SWAP2 POP PUSH2 0x112D DUP3 PUSH2 0x10EC JUMP JUMPDEST PUSH1 0x20 DUP3 ADD SWAP1 POP SWAP2 SWAP1 POP JUMP JUMPDEST PUSH1 0x0 PUSH1 0x20 DUP3 ADD SWAP1 POP DUP2 DUP2 SUB PUSH1 0x0 DUP4 ADD MSTORE PUSH2 0x1151 DUP2 PUSH2 0x1115 JUMP JUMPDEST SWAP1 POP SWAP2 SWAP1 POP JUMP JUMPDEST PUSH32 0x496E73756666696369656E742062616C616E6365000000000000000000000000 PUSH1 0x0 DUP3 ADD MSTORE POP JUMP JUMPDEST PUSH1 0x0 PUSH2 0x118E PUSH1 0x14 DUP4 PUSH2 0xEEF JUMP JUMPDEST SWAP2 POP PUSH2 0x1199 DUP3 PUSH2 0x1158 JUMP JUMPDEST PUSH1 0x20 DUP3 ADD SWAP1 POP SWAP2 SWAP1 POP JUMP JUMPDEST PUSH1 0x0 PUSH1 0x20 DUP3 ADD SWAP1 POP DUP2 DUP2 SUB PUSH1 0x0 DUP4 ADD MSTORE PUSH2 0x11BD DUP2 PUSH2 0x1181 JUMP JUMPDEST SWAP1 POP SWAP2 SWAP1 POP JUMP JUMPDEST PUSH1 0x0 PUSH2 0x11CF DUP3 PUSH2 0xA24 JUMP JUMPDEST SWAP2 POP PUSH2 0x11DA DUP4 PUSH2 0xA24 JUMP JUMPDEST SWAP3 POP DUP3 DUP3 SUB SWAP1 POP DUP2 DUP2 GT ISZERO PUSH2 0x11F2 JUMPI PUSH2 0x11F1 PUSH2 0x1089 JUMP JUMPDEST JUMPDEST SWAP3 SWAP2 POP POP JUMP JUMPDEST PUSH32 0x4E6F6E636520616C726561647920757365640000000000000000000000000000 PUSH1 0x0 DUP3 ADD MSTORE POP JUMP JUMPDEST PUSH1 0x0 PUSH2 0x122E PUSH1 0x12 DUP4 PUSH2 0xEEF JUMP JUMPDEST SWAP2 POP PUSH2 0x1239 DUP3 PUSH2 0x11F8 JUMP JUMPDEST PUSH1 0x20 DUP3 ADD SWAP1 POP SWAP2 SWAP1 POP JUMP JUMPDEST PUSH1 0x0 PUSH1 0x20 DUP3 ADD SWAP1 POP DUP2 DUP2 SUB PUSH1 0x0 DUP4 ADD MSTORE PUSH2 0x125D DUP2 PUSH2 0x1221 JUMP JUMPDEST SWAP1 POP SWAP2 SWAP1 POP JUMP JUMPDEST PUSH32 0x557365726E616D65206E6F742072656769737465726564000000000000000000 PUSH1 0x0 DUP3 ADD MSTORE POP JUMP JUMPDEST PUSH1 0x0 PUSH2 0x129A PUSH1 0x17 DUP4 PUSH2 0xEEF JUMP JUMPDEST SWAP2 POP PUSH2 0x12A5 DUP3 PUSH2 0x1264 JUMP JUMPDEST PUSH1 0x20 DUP3 ADD SWAP1 POP SWAP2 SWAP1 POP JUMP JUMPDEST PUSH1 0x0 PUSH1 0x20 DUP3 ADD SWAP1 POP DUP2 DUP2 SUB PUSH1 0x0 DUP4 ADD MSTORE PUSH2 0x12C9 DUP2 PUSH2 0x128D JUMP JUMPDEST SWAP1 POP SWAP2 SWAP1 POP JUMP JUMPDEST PUSH32 0x4E487B7100000000000000000000000000000000000000000000000000000000 PUSH1 0x0 MSTORE PUSH1 0x32 PUSH1 0x4 MSTORE PUSH1 0x24 PUSH1 0x0 REVERT JUMPDEST PUSH1 0x0 PUSH1 0x2 SWAP1 POP SWAP2 SWAP1 POP JUMP JUMPDEST PUSH1 0x0 DUP2 SWAP1 POP SWAP3 SWAP2 POP POP JUMP JUMPDEST PUSH1 0x0 DUP2 SWAP1 POP SWAP2 SWAP1 POP JUMP JUMPDEST PUSH2 0x1328 DUP2 PUSH2 0xA24 JUMP JUMPDEST DUP3 MSTORE POP POP JUMP JUMPDEST PUSH1 0x0 PUSH2 0x133A DUP4 DUP4 PUSH2 0x131F JUMP JUMPDEST PUSH1 0x20 DUP4 ADD SWAP1 POP SWAP3 SWAP2 POP POP JUMP JUMPDEST PUSH1 0x0 PUSH1 0x20 DUP3 ADD SWAP1 POP SWAP2 SWAP1 POP JUMP JUMPDEST PUSH2 0x135C DUP2 PUSH2 0x12FF JUMP JUMPDEST PUSH2 0x1366 DUP2 DUP5 PUSH2 0x130A JUMP JUMPDEST SWAP3 POP PUSH2 0x1371 DUP3 PUSH2 0x1315 JUMP JUMPDEST DUP1 PUSH1 0x0 JUMPDEST DUP4 DUP2 LT ISZERO PUSH2 0x13A2 JUMPI DUP2 MLOAD PUSH2 0x1389 DUP8 DUP3 PUSH2 0x132E JUMP JUMPDEST SWAP7 POP PUSH2 0x1394 DUP4 PUSH2 0x1346 JUMP JUMPDEST SWAP3 POP POP PUSH1 0x1 DUP2 ADD SWAP1 POP PUSH2 0x1375 JUMP JUMPDEST POP POP POP POP POP POP JUMP JUMPDEST PUSH1 0x0 PUSH1 0x2 SWAP1 POP SWAP2 SWAP1 POP JUMP JUMPDEST PUSH1 0x0 DUP2 SWAP1 POP SWAP3 SWAP2 POP POP JUMP JUMPDEST PUSH1 0x0 DUP2 SWAP1 POP SWAP2 SWAP1 POP JUMP JUMPDEST PUSH1 0x0 DUP2 SWAP1 POP SWAP3 SWAP2 POP POP JUMP JUMPDEST PUSH2 0x13DE DUP2 PUSH2 0x12FF JUMP JUMPDEST PUSH2 0x13E8 DUP2 DUP5 PUSH2 0x13CA JUMP JUMPDEST SWAP3 POP PUSH2 0x13F3 DUP3 PUSH2 0x1315 JUMP JUMPDEST DUP1 PUSH1 0x0 JUMPDEST DUP4 DUP2 LT ISZERO PUSH2 0x1424 JUMPI DUP2 MLOAD PUSH2 0x140B DUP8 DUP3 PUSH2 0x132E JUMP JUMPDEST SWAP7 POP PUSH2 0x1416 DUP4 PUSH2 0x1346 JUMP JUMPDEST SWAP3 POP POP PUSH1 0x1 DUP2 ADD SWAP1 POP PUSH2 0x13F7 JUMP JUMPDEST POP POP POP POP POP POP JUMP JUMPDEST PUSH1 0x0 PUSH2 0x1438 DUP4 DUP4 PUSH2 0x13D5 JUMP JUMPDEST PUSH1 0x40 DUP4 ADD SWAP1 POP SWAP3 SWAP2 POP POP JUMP JUMPDEST PUSH1 0x0 PUSH1 0x20 DUP3 ADD SWAP1 POP SWAP2 SWAP1 POP JUMP JUMPDEST PUSH2 0x145A DUP2 PUSH2 0x13AA JUMP JUMPDEST PUSH2 0x1464 DUP2 DUP5 PUSH2 0x13B5 JUMP JUMPDEST SWAP3 POP PUSH2 0x146F DUP3 PUSH2 0x13C0 JUMP JUMPDEST DUP1 PUSH1 0x0 JUMPDEST DUP4 DUP2 LT ISZERO PUSH2 0x14A0 JUMPI DUP2 MLOAD PUSH2 0x1487 DUP8 DUP3 PUSH2 0x142C JUMP JUMPDEST SWAP7 POP PUSH2 0x1492 DUP4 PUSH2 0x1444 JUMP JUMPDEST SWAP3 POP POP PUSH1 0x1 DUP2 ADD SWAP1 POP PUSH2 0x1473 JUMP JUMPDEST POP POP POP POP POP POP JUMP JUMPDEST PUSH1 0x0 PUSH1 0x3 SWAP1 POP SWAP2 SWAP1 POP JUMP JUMPDEST PUSH1 0x0 DUP2 SWAP1 POP SWAP3 SWAP2 POP POP JUMP JUMPDEST PUSH1 0x0 DUP2 SWAP1 POP SWAP2 SWAP1 POP JUMP JUMPDEST PUSH1 0x0 PUSH1 0x20 DUP3 ADD SWAP1 POP SWAP2 SWAP1 POP JUMP JUMPDEST PUSH2 0x14DE DUP2 PUSH2 0x14A8 JUMP JUMPDEST PUSH2 0x14E8 DUP2 DUP5 PUSH2 0x14B3 JUMP JUMPDEST SWAP3 POP PUSH2 0x14F3 DUP3 PUSH2 0x14BE JUMP JUMPDEST DUP1 PUSH1 0x0 JUMPDEST DUP4 DUP2 LT ISZERO PUSH2 0x1524 JUMPI DUP2 MLOAD PUSH2 0x150B DUP8 DUP3 PUSH2 0x132E JUMP JUMPDEST SWAP7 POP PUSH2 0x1516 DUP4 PUSH2 0x14C8 JUMP JUMPDEST SWAP3 POP POP PUSH1 0x1 DUP2 ADD SWAP1 POP PUSH2 0x14F7 JUMP JUMPDEST POP POP POP POP POP POP JUMP JUMPDEST PUSH1 0x0 PUSH2 0x160 DUP3 ADD SWAP1 POP PUSH2 0x1542 PUSH1 0x0 DUP4 ADD DUP8 PUSH2 0x1353 JUMP JUMPDEST PUSH2 0x154F PUSH1 0x40 DUP4 ADD DUP7 PUSH2 0x1451 JUMP JUMPDEST PUSH2 0x155C PUSH1 0xC0 DUP4 ADD DUP6 PUSH2 0x1353 JUMP JUMPDEST PUSH2 0x156A PUSH2 0x100 DUP4 ADD DUP5 PUSH2 0x14D5 JUMP JUMPDEST SWAP6 SWAP5 POP POP POP POP POP JUMP JUMPDEST PUSH32 0x496E76616C69642070726F6F6600000000000000000000000000000000000000 PUSH1 0x0 DUP3 ADD MSTORE POP JUMP JUMPDEST PUSH1 0x0 PUSH2 0x15A9 PUSH1 0xD DUP4 PUSH2 0xEEF JUMP JUMPDEST SWAP2 POP PUSH2 0x15B4 DUP3 PUSH2 0x1573 JUMP JUMPDEST PUSH1 0x20 DUP3 ADD SWAP1 POP SWAP2 SWAP1 POP JUMP JUMPDEST PUSH1 0x0 PUSH1 0x20 DUP3 ADD SWAP1 POP DUP2 DUP2 SUB PUSH1 0x0 DUP4 ADD MSTORE PUSH2 0x15D8 DUP2 PUSH2 0x159C JUMP JUMPDEST SWAP1 POP SWAP2 SWAP1 POP JUMP JUMPDEST PUSH32 0x557365726E616D6520616C726561647920726567697374657265640000000000 PUSH1 0x0 DUP3 ADD MSTORE POP JUMP JUMPDEST PUSH1 0x0 PUSH2 0x1615 PUSH1 0x1B DUP4 PUSH2 0xEEF JUMP JUMPDEST SWAP2 POP PUSH2 0x1620 DUP3 PUSH2 0x15DF JUMP JUMPDEST PUSH1 0x20 DUP3 ADD SWAP1 POP SWAP2 SWAP1 POP JUMP JUMPDEST PUSH1 0x0 PUSH1 0x20 DUP3 ADD SWAP1 POP DUP2 DUP2 SUB PUSH1 0x0 DUP4 ADD MSTORE PUSH2 0x1644 DUP2 PUSH2 0x1608 JUMP JUMPDEST SWAP1 POP SWAP2 SWAP1 POP JUMP INVALID LOG2 PUSH5 0x6970667358 0x22 SLT KECCAK256 JUMP SWAP1 SELFDESTRUCT 0xCC EXTCODECOPY 0x28 PUSH7 0x3A0BF4D5FD0621 SELFDESTRUCT GAS CALL 0xAF RETURNDATACOPY 0xBD 0x2B INVALID 0xAA CALLVALUE PUSH10 0xA330892A9A44D164736F PUSH13 0x634300081C0033000000000000 "},"methodIdentifiers":{"balances(uint256)":"4903b0d1","deposit(uint256[2],uint256[2][2],uint256[2],uint256,uint256,uint256)":"0b928c9d","pay(uint256[2],uint256[2][2],uint256[2],uint256,uint256,uint256,uint256)":"7b6084de","register(uint256,uint256)":"d66d6c10","resultHashes(uint256)":"de3a0633","usdc()":"3e413bee","usedNonces(uint256,uint256)":"4774be9f","verifier()":"2b7ac3f3","verify(uint256[2],uint256[2][2],uint256[2],uint256,uint256)":"b54efb7e"}}}}}