{
  "_format": "hh-sol-artifact-1",
  "contractName": "HashVerifier",
  "sourceName": "contracts/HashVerifier.sol",
  "abi": [
    {
      "inputs": [
        {
          "internalType": "address",
          "name": "_verifierAddress",
          "type": "address"
        }
      ],
      "stateMutability": "nonpayable",
      "type": "constructor"
    },
    {
      "anonymous": false,
      "inputs": [
        {
          "indexed": true,
          "internalType": "uint256",
          "name": "usernameHash",
          "type": "uint256"
        },
        {
          "indexed": false,
          "internalType": "uint256",
          "name": "nonce",
          "type": "uint256"
        }
      ],
      "name": "ProofVerified",
      "type": "event"
    },
    {
      "anonymous": false,
      "inputs": [
        {
          "indexed": true,
          "internalType": "uint256",
          "name": "usernameHash",
          "type": "uint256"
        },
        {
          "indexed": false,
          "internalType": "uint256",
          "name": "resultHash",
          "type": "uint256"
        }
      ],
      "name": "UsernameRegistered",
      "type": "event"
    },
    {
      "inputs": [
        {
          "internalType": "uint256",
          "name": "usernameHash",
          "type": "uint256"
        },
        {
          "internalType": "uint256",
          "name": "resultHash",
          "type": "uint256"
        }
      ],
      "name": "register",
      "outputs": [],
      "stateMutability": "nonpayable",
      "type": "function"
    },
    {
      "inputs": [
        {
          "internalType": "uint256",
          "name": "",
          "type": "uint256"
        }
      ],
      "name": "resultHashes",
      "outputs": [
        {
          "internalType": "uint256",
          "name": "",
          "type": "uint256"
        }
      ],
      "stateMutability": "view",
      "type": "function"
    },
    {
      "inputs": [
        {
          "internalType": "uint256",
          "name": "",
          "type": "uint256"
        },
        {
          "internalType": "uint256",
          "name": "",
          "type": "uint256"
        }
      ],
      "name": "usedNonces",
      "outputs": [
        {
          "internalType": "bool",
          "name": "",
          "type": "bool"
        }
      ],
      "stateMutability": "view",
      "type": "function"
    },
    {
      "inputs": [],
      "name": "verifier",
      "outputs": [
        {
          "internalType": "contract IVerifier",
          "name": "",
          "type": "address"
        }
      ],
      "stateMutability": "view",
      "type": "function"
    },
    {
      "inputs": [
        {
          "internalType": "uint256[2]",
          "name": "a",
          "type": "uint256[2]"
        },
        {
          "internalType": "uint256[2][2]",
          "name": "b",
          "type": "uint256[2][2]"
        },
        {
          "internalType": "uint256[2]",
          "name": "c",
          "type": "uint256[2]"
        },
        {
          "internalType": "uint256",
          "name": "usernameHash",
          "type": "uint256"
        },
        {
          "internalType": "uint256",
          "name": "nonce",
          "type": "uint256"
        }
      ],
      "name": "verify",
      "outputs": [
        {
          "internalType": "bool",
          "name": "",
          "type": "bool"
        }
      ],
      "stateMutability": "nonpayable",
      "type": "function"
    }
  ],
  "bytecode": "0x608060405234801561001057600080fd5b50604051610f2d380380610f2d833981810160405281019061003291906100dc565b80600260006101000a81548173ffffffffffffffffffffffffffffffffffffffff021916908373ffffffffffffffffffffffffffffffffffffffff16021790555050610109565b600080fd5b600073ffffffffffffffffffffffffffffffffffffffff82169050919050565b60006100a98261007e565b9050919050565b6100b98161009e565b81146100c457600080fd5b50565b6000815190506100d6816100b0565b92915050565b6000602082840312156100f2576100f1610079565b5b6000610100848285016100c7565b91505092915050565b610e15806101186000396000f3fe608060405234801561001057600080fd5b50600436106100575760003560e01c80632b7ac3f31461005c5780634774be9f1461007a578063b54efb7e146100aa578063d66d6c10146100da578063de3a0633146100f6575b600080fd5b610064610126565b604051610071919061057f565b60405180910390f35b610094600480360381019061008f91906105df565b61014c565b6040516100a1919061063a565b60405180910390f35b6100c460048036038101906100bf919061084d565b61017b565b6040516100d1919061063a565b60405180910390f35b6100f460048036038101906100ef91906105df565b61041c565b005b610110600480360381019061010b91906108cb565b6104c6565b60405161011d9190610907565b60405180910390f35b600260009054906101000a900473ffffffffffffffffffffffffffffffffffffffff1681565b60006020528160005260406000206020528060005260406000206000915091509054906101000a900460ff1681565b6000806000848152602001908152602001600020600083815260200190815260200160002060009054906101000a900460ff16156101ee576040517f08c379a00000000000000000000000000000000000000000000000000000000081526004016101e59061097f565b60405180910390fd5b6000600160008581526020019081526020016000205403610244576040517f08c379a000000000000000000000000000000000000000000000000000000000815260040161023b906109eb565b60405180910390fd5b61024c6104de565b838160006003811061026157610260610a0b565b5b602002018181525050828160016003811061027f5761027e610a0b565b5b6020020181815250506001600085815260200190815260200160002054816002600381106102b0576102af610a0b565b5b602002018181525050600260009054906101000a900473ffffffffffffffffffffffffffffffffffffffff1673ffffffffffffffffffffffffffffffffffffffff166311479fea888888856040518563ffffffff1660e01b815260040161031a9493929190610c67565b602060405180830381865afa158015610337573d6000803e3d6000fd5b505050506040513d601f19601f8201168201806040525081019061035b9190610cda565b61039a576040517f08c379a000000000000000000000000000000000000000000000000000000000815260040161039190610d53565b60405180910390fd5b6001600080868152602001908152602001600020600085815260200190815260200160002060006101000a81548160ff021916908315150217905550837fd4f3db4a3b56fedc0b470e2e34b8d98c7baf6e0c2c02edebb326437ba5c4b93f846040516104069190610907565b60405180910390a2600191505095945050505050565b6000600160008481526020019081526020016000205414610472576040517f08c379a000000000000000000000000000000000000000000000000000000000815260040161046990610dbf565b60405180910390fd5b806001600084815260200190815260200160002081905550817fd200ed943adf73af7ea5a26ded884a431203593fbc0ff8f6a819f5919c9555b1826040516104ba9190610907565b60405180910390a25050565b60016020528060005260406000206000915090505481565b6040518060600160405280600390602082028036833780820191505090505090565b600073ffffffffffffffffffffffffffffffffffffffff82169050919050565b6000819050919050565b600061054561054061053b84610500565b610520565b610500565b9050919050565b60006105578261052a565b9050919050565b60006105698261054c565b9050919050565b6105798161055e565b82525050565b60006020820190506105946000830184610570565b92915050565b6000604051905090565b600080fd5b6000819050919050565b6105bc816105a9565b81146105c757600080fd5b50565b6000813590506105d9816105b3565b92915050565b600080604083850312156105f6576105f56105a4565b5b6000610604858286016105ca565b9250506020610615858286016105ca565b9150509250929050565b60008115159050919050565b6106348161061f565b82525050565b600060208201905061064f600083018461062b565b92915050565b600080fd5b6000601f19601f8301169050919050565b7f4e487b7100000000000000000000000000000000000000000000000000000000600052604160045260246000fd5b6106a38261065a565b810181811067ffffffffffffffff821117156106c2576106c161066b565b5b80604052505050565b60006106d561059a565b90506106e1828261069a565b919050565b600067ffffffffffffffff8211156107015761070061066b565b5b602082029050919050565b600080fd5b600061072461071f846106e6565b6106cb565b9050806020840283018581111561073e5761073d61070c565b5b835b81811015610767578061075388826105ca565b845260208401935050602081019050610740565b5050509392505050565b600082601f83011261078657610785610655565b5b6002610793848285610711565b91505092915050565b600067ffffffffffffffff8211156107b7576107b661066b565b5b602082029050919050565b60006107d56107d08461079c565b6106cb565b905080604084028301858111156107ef576107ee61070c565b5b835b8181101561081857806108048882610771565b8452602084019350506040810190506107f1565b5050509392505050565b600082601f83011261083757610836610655565b5b60026108448482856107c2565b91505092915050565b6000806000806000610140868803121561086a576108696105a4565b5b600061087888828901610771565b955050604061088988828901610822565b94505060c061089a88828901610771565b9350506101006108ac888289016105ca565b9250506101206108be888289016105ca565b9150509295509295909350565b6000602082840312156108e1576108e06105a4565b5b60006108ef848285016105ca565b91505092915050565b610901816105a9565b82525050565b600060208201905061091c60008301846108f8565b92915050565b600082825260208201905092915050565b7f4e6f6e636520616c726561647920757365640000000000000000000000000000600082015250565b6000610969601283610922565b915061097482610933565b602082019050919050565b600060208201905081810360008301526109988161095c565b9050919050565b7f557365726e616d65206e6f742072656769737465726564000000000000000000600082015250565b60006109d5601783610922565b91506109e08261099f565b602082019050919050565b60006020820190508181036000830152610a04816109c8565b9050919050565b7f4e487b7100000000000000000000000000000000000000000000000000000000600052603260045260246000fd5b600060029050919050565b600081905092915050565b6000819050919050565b610a63816105a9565b82525050565b6000610a758383610a5a565b60208301905092915050565b6000602082019050919050565b610a9781610a3a565b610aa18184610a45565b9250610aac82610a50565b8060005b83811015610add578151610ac48782610a69565b9650610acf83610a81565b925050600181019050610ab0565b505050505050565b600060029050919050565b600081905092915050565b6000819050919050565b600081905092915050565b610b1981610a3a565b610b238184610b05565b9250610b2e82610a50565b8060005b83811015610b5f578151610b468782610a69565b9650610b5183610a81565b925050600181019050610b32565b505050505050565b6000610b738383610b10565b60408301905092915050565b6000602082019050919050565b610b9581610ae5565b610b9f8184610af0565b9250610baa82610afb565b8060005b83811015610bdb578151610bc28782610b67565b9650610bcd83610b7f565b925050600181019050610bae565b505050505050565b600060039050919050565b600081905092915050565b6000819050919050565b6000602082019050919050565b610c1981610be3565b610c238184610bee565b9250610c2e82610bf9565b8060005b83811015610c5f578151610c468782610a69565b9650610c5183610c03565b925050600181019050610c32565b505050505050565b600061016082019050610c7d6000830187610a8e565b610c8a6040830186610b8c565b610c9760c0830185610a8e565b610ca5610100830184610c10565b95945050505050565b610cb78161061f565b8114610cc257600080fd5b50565b600081519050610cd481610cae565b92915050565b600060208284031215610cf057610cef6105a4565b5b6000610cfe84828501610cc5565b91505092915050565b7f496e76616c69642070726f6f6600000000000000000000000000000000000000600082015250565b6000610d3d600d83610922565b9150610d4882610d07565b602082019050919050565b60006020820190508181036000830152610d6c81610d30565b9050919050565b7f557365726e616d6520616c726561647920726567697374657265640000000000600082015250565b6000610da9601b83610922565b9150610db482610d73565b602082019050919050565b60006020820190508181036000830152610dd881610d9c565b905091905056fea2646970667358221220e9f796950949f8815799fa04041962143e4b2e43dda5a497c93ec69b5cc0247164736f6c634300081c0033",
  "linkReferences": {},
  "deployedLinkReferences": {}
}