{
  "_format": "hh-sol-artifact-1",
  "contractName": "HashVerifier",
  "sourceName": "contracts/HashVerifier.sol",
  "abi": [
    {
      "inputs": [
        {
          "internalType": "address",
          "name": "_verifierAddress",
          "type": "address"
        },
        {
          "internalType": "address",
          "name": "_usdcAddress",
          "type": "address"
        }
      ],
      "stateMutability": "nonpayable",
      "type": "constructor"
    },
    {
      "anonymous": false,
      "inputs": [
        {
          "indexed": true,
          "internalType": "uint256",
          "name": "usernameHash",
          "type": "uint256"
        },
        {
          "indexed": false,
          "internalType": "uint256",
          "name": "amount",
          "type": "uint256"
        }
      ],
      "name": "Deposited",
      "type": "event"
    },
    {
      "anonymous": false,
      "inputs": [
        {
          "indexed": true,
          "internalType": "uint256",
          "name": "fromUsernameHash",
          "type": "uint256"
        },
        {
          "indexed": true,
          "internalType": "uint256",
          "name": "toUsernameHash",
          "type": "uint256"
        },
        {
          "indexed": false,
          "internalType": "uint256",
          "name": "amount",
          "type": "uint256"
        }
      ],
      "name": "Paid",
      "type": "event"
    },
    {
      "inputs": [
        {
          "internalType": "uint256",
          "name": "",
          "type": "uint256"
        }
      ],
      "name": "balances",
      "outputs": [
        {
          "internalType": "uint256",
          "name": "",
          "type": "uint256"
        }
      ],
      "stateMutability": "view",
      "type": "function"
    },
    {
      "inputs": [
        {
          "internalType": "uint256",
          "name": "usernameHash",
          "type": "uint256"
        },
        {
          "internalType": "uint256",
          "name": "amount",
          "type": "uint256"
        }
      ],
      "name": "deposit",
      "outputs": [],
      "stateMutability": "nonpayable",
      "type": "function"
    },
    {
      "inputs": [
        {
          "internalType": "uint256[2]",
          "name": "a",
          "type": "uint256[2]"
        },
        {
          "internalType": "uint256[2][2]",
          "name": "b",
          "type": "uint256[2][2]"
        },
        {
          "internalType": "uint256[2]",
          "name": "c",
          "type": "uint256[2]"
        },
        {
          "internalType": "uint256",
          "name": "fromUsernameHash",
          "type": "uint256"
        },
        {
          "internalType": "uint256",
          "name": "toUsernameHash",
          "type": "uint256"
        },
        {
          "internalType": "uint256",
          "name": "nonce",
          "type": "uint256"
        },
        {
          "internalType": "uint256",
          "name": "resultHash",
          "type": "uint256"
        },
        {
          "internalType": "uint256",
          "name": "amount",
          "type": "uint256"
        }
      ],
      "name": "pay",
      "outputs": [
        {
          "internalType": "bool",
          "name": "",
          "type": "bool"
        }
      ],
      "stateMutability": "nonpayable",
      "type": "function"
    },
    {
      "inputs": [],
      "name": "usdc",
      "outputs": [
        {
          "internalType": "contract IERC20",
          "name": "",
          "type": "address"
        }
      ],
      "stateMutability": "view",
      "type": "function"
    },
    {
      "inputs": [
        {
          "internalType": "uint256",
          "name": "",
          "type": "uint256"
        },
        {
          "internalType": "uint256",
          "name": "",
          "type": "uint256"
        }
      ],
      "name": "usedNonces",
      "outputs": [
        {
          "internalType": "bool",
          "name": "",
          "type": "bool"
        }
      ],
      "stateMutability": "view",
      "type": "function"
    },
    {
      "inputs": [],
      "name": "verifier",
      "outputs": [
        {
          "internalType": "contract IVerifier",
          "name": "",
          "type": "address"
        }
      ],
      "stateMutability": "view",
      "type": "function"
    }
  ],
  "bytecode": "0x60a060405234801561001057600080fd5b5060405161144438038061144483398181016040528101906100329190610111565b81600260006101000a81548173ffffffffffffffffffffffffffffffffffffffff021916908373ffffffffffffffffffffffffffffffffffffffff1602179055508073ffffffffffffffffffffffffffffffffffffffff1660808173ffffffffffffffffffffffffffffffffffffffff16815250505050610151565b600080fd5b600073ffffffffffffffffffffffffffffffffffffffff82169050919050565b60006100de826100b3565b9050919050565b6100ee816100d3565b81146100f957600080fd5b50565b60008151905061010b816100e5565b92915050565b60008060408385031215610128576101276100ae565b5b6000610136858286016100fc565b9250506020610147858286016100fc565b9150509250929050565b6080516112d16101736000396000818161017701526103aa01526112d16000f3fe608060405234801561001057600080fd5b50600436106100625760003560e01c80632b7ac3f3146100675780633e413bee146100855780634774be9f146100a35780634903b0d1146100d35780637dcefe3b14610103578063e2bbb15814610133575b600080fd5b61006f61014f565b60405161007c919061078f565b60405180910390f35b61008d610175565b60405161009a91906107cb565b60405180910390f35b6100bd60048036038101906100b8919061082b565b610199565b6040516100ca9190610886565b60405180910390f35b6100ed60048036038101906100e891906108a1565b6101c8565b6040516100fa91906108dd565b60405180910390f35b61011d60048036038101906101189190610af0565b6101e0565b60405161012a9190610886565b60405180910390f35b61014d6004803603810190610148919061082b565b610322565b005b600260009054906101000a900473ffffffffffffffffffffffffffffffffffffffff1681565b7f000000000000000000000000000000000000000000000000000000000000000081565b60006020528160005260406000206020528060005260406000206000915091509054906101000a900460ff1681565b60016020528060005260406000206000915090505481565b60006101f08989898988886104ed565b61022f576040517f08c379a000000000000000000000000000000000000000000000000000000000815260040161022690610c08565b60405180910390fd5b8160016000888152602001908152602001600020541015610285576040517f08c379a000000000000000000000000000000000000000000000000000000000815260040161027c90610c74565b60405180910390fd5b816001600088815260200190815260200160002060008282546102a89190610cc3565b92505081905550816001600087815260200190815260200160002060008282546102d29190610cf7565b9250508190555084867f6015fce7263ca58690e6c17944e54e2fd202d8f1141f0a9f5cdcd6ec8598dd8b8460405161030a91906108dd565b60405180910390a36001905098975050505050505050565b60008111610365576040517f08c379a000000000000000000000000000000000000000000000000000000000815260040161035c90610d77565b60405180910390fd5b600082036103a8576040517f08c379a000000000000000000000000000000000000000000000000000000000815260040161039f90610de3565b60405180910390fd5b7f000000000000000000000000000000000000000000000000000000000000000073ffffffffffffffffffffffffffffffffffffffff166323b872dd3330846040518463ffffffff1660e01b815260040161040593929190610e24565b6020604051808303816000875af1158015610424573d6000803e3d6000fd5b505050506040513d601f19601f820116820180604052508101906104489190610e87565b610487576040517f08c379a000000000000000000000000000000000000000000000000000000000815260040161047e90610f00565b60405180910390fd5b806001600084815260200190815260200160002060008282546104aa9190610cf7565b92505081905550817f06da3309189fa49284f335d2c2bcb4cb0b8ad2a59ad92a9bdebeeb8f1ceba511826040516104e191906108dd565b60405180910390a25050565b6000806000858152602001908152602001600020600084815260200190815260200160002060009054906101000a900460ff1615610560576040517f08c379a000000000000000000000000000000000000000000000000000000000815260040161055790610f6c565b60405180910390fd5b6105686106ee565b848160006003811061057d5761057c610f8c565b5b602002018181525050838160016003811061059b5761059a610f8c565b5b60200201818152505082816002600381106105b9576105b8610f8c565b5b602002018181525050600260009054906101000a900473ffffffffffffffffffffffffffffffffffffffff1673ffffffffffffffffffffffffffffffffffffffff166311479fea898989856040518563ffffffff1660e01b815260040161062394939291906111e8565b602060405180830381865afa158015610640573d6000803e3d6000fd5b505050506040513d601f19601f820116820180604052508101906106649190610e87565b6106a3576040517f08c379a000000000000000000000000000000000000000000000000000000000815260040161069a9061127b565b60405180910390fd5b6001600080878152602001908152602001600020600086815260200190815260200160002060006101000a81548160ff02191690831515021790555060019150509695505050505050565b6040518060600160405280600390602082028036833780820191505090505090565b600073ffffffffffffffffffffffffffffffffffffffff82169050919050565b6000819050919050565b600061075561075061074b84610710565b610730565b610710565b9050919050565b60006107678261073a565b9050919050565b60006107798261075c565b9050919050565b6107898161076e565b82525050565b60006020820190506107a46000830184610780565b92915050565b60006107b58261075c565b9050919050565b6107c5816107aa565b82525050565b60006020820190506107e060008301846107bc565b92915050565b6000604051905090565b600080fd5b6000819050919050565b610808816107f5565b811461081357600080fd5b50565b600081359050610825816107ff565b92915050565b60008060408385031215610842576108416107f0565b5b600061085085828601610816565b925050602061086185828601610816565b9150509250929050565b60008115159050919050565b6108808161086b565b82525050565b600060208201905061089b6000830184610877565b92915050565b6000602082840312156108b7576108b66107f0565b5b60006108c584828501610816565b91505092915050565b6108d7816107f5565b82525050565b60006020820190506108f260008301846108ce565b92915050565b600080fd5b6000601f19601f8301169050919050565b7f4e487b7100000000000000000000000000000000000000000000000000000000600052604160045260246000fd5b610946826108fd565b810181811067ffffffffffffffff821117156109655761096461090e565b5b80604052505050565b60006109786107e6565b9050610984828261093d565b919050565b600067ffffffffffffffff8211156109a4576109a361090e565b5b602082029050919050565b600080fd5b60006109c76109c284610989565b61096e565b905080602084028301858111156109e1576109e06109af565b5b835b81811015610a0a57806109f68882610816565b8452602084019350506020810190506109e3565b5050509392505050565b600082601f830112610a2957610a286108f8565b5b6002610a368482856109b4565b91505092915050565b600067ffffffffffffffff821115610a5a57610a5961090e565b5b602082029050919050565b6000610a78610a7384610a3f565b61096e565b90508060408402830185811115610a9257610a916109af565b5b835b81811015610abb5780610aa78882610a14565b845260208401935050604081019050610a94565b5050509392505050565b600082601f830112610ada57610ad96108f8565b5b6002610ae7848285610a65565b91505092915050565b6000806000806000806000806101a0898b031215610b1157610b106107f0565b5b6000610b1f8b828c01610a14565b9850506040610b308b828c01610ac5565b97505060c0610b418b828c01610a14565b965050610100610b538b828c01610816565b955050610120610b658b828c01610816565b945050610140610b778b828c01610816565b935050610160610b898b828c01610816565b925050610180610b9b8b828c01610816565b9150509295985092959890939650565b600082825260208201905092915050565b7f566572696669636174696f6e206661696c656400000000000000000000000000600082015250565b6000610bf2601383610bab565b9150610bfd82610bbc565b602082019050919050565b60006020820190508181036000830152610c2181610be5565b9050919050565b7f496e73756666696369656e742062616c616e6365000000000000000000000000600082015250565b6000610c5e601483610bab565b9150610c6982610c28565b602082019050919050565b60006020820190508181036000830152610c8d81610c51565b9050919050565b7f4e487b7100000000000000000000000000000000000000000000000000000000600052601160045260246000fd5b6000610cce826107f5565b9150610cd9836107f5565b9250828203905081811115610cf157610cf0610c94565b5b92915050565b6000610d02826107f5565b9150610d0d836107f5565b9250828201905080821115610d2557610d24610c94565b5b92915050565b7f416d6f756e74206d7573742062652067726561746572207468616e2030000000600082015250565b6000610d61601d83610bab565b9150610d6c82610d2b565b602082019050919050565b60006020820190508181036000830152610d9081610d54565b9050919050565b7f496e76616c696420757365726e616d6520686173680000000000000000000000600082015250565b6000610dcd601583610bab565b9150610dd882610d97565b602082019050919050565b60006020820190508181036000830152610dfc81610dc0565b9050919050565b6000610e0e82610710565b9050919050565b610e1e81610e03565b82525050565b6000606082019050610e396000830186610e15565b610e466020830185610e15565b610e5360408301846108ce565b949350505050565b610e648161086b565b8114610e6f57600080fd5b50565b600081519050610e8181610e5b565b92915050565b600060208284031215610e9d57610e9c6107f0565b5b6000610eab84828501610e72565b91505092915050565b7f5472616e73666572206661696c65640000000000000000000000000000000000600082015250565b6000610eea600f83610bab565b9150610ef582610eb4565b602082019050919050565b60006020820190508181036000830152610f1981610edd565b9050919050565b7f4e6f6e636520616c726561647920757365640000000000000000000000000000600082015250565b6000610f56601283610bab565b9150610f6182610f20565b602082019050919050565b60006020820190508181036000830152610f8581610f49565b9050919050565b7f4e487b7100000000000000000000000000000000000000000000000000000000600052603260045260246000fd5b600060029050919050565b600081905092915050565b6000819050919050565b610fe4816107f5565b82525050565b6000610ff68383610fdb565b60208301905092915050565b6000602082019050919050565b61101881610fbb565b6110228184610fc6565b925061102d82610fd1565b8060005b8381101561105e5781516110458782610fea565b965061105083611002565b925050600181019050611031565b505050505050565b600060029050919050565b600081905092915050565b6000819050919050565b600081905092915050565b61109a81610fbb565b6110a48184611086565b92506110af82610fd1565b8060005b838110156110e05781516110c78782610fea565b96506110d283611002565b9250506001810190506110b3565b505050505050565b60006110f48383611091565b60408301905092915050565b6000602082019050919050565b61111681611066565b6111208184611071565b925061112b8261107c565b8060005b8381101561115c57815161114387826110e8565b965061114e83611100565b92505060018101905061112f565b505050505050565b600060039050919050565b600081905092915050565b6000819050919050565b6000602082019050919050565b61119a81611164565b6111a4818461116f565b92506111af8261117a565b8060005b838110156111e05781516111c78782610fea565b96506111d283611184565b9250506001810190506111b3565b505050505050565b6000610160820190506111fe600083018761100f565b61120b604083018661110d565b61121860c083018561100f565b611226610100830184611191565b95945050505050565b7f496e76616c69642070726f6f6600000000000000000000000000000000000000600082015250565b6000611265600d83610bab565b91506112708261122f565b602082019050919050565b6000602082019050818103600083015261129481611258565b905091905056fea2646970667358221220d0e2564acd157cc568c496c2760e1e69622abb9635bd3b375d76368ce678371e64736f6c634300081c0033",
  "linkReferences": {},
  "deployedLinkReferences": {}
}